{
  "contractName": "VirtualStore",
  "abi": [
    {
      "inputs": [],
      "stateMutability": "nonpayable",
      "type": "constructor"
    },
    {
      "anonymous": false,
      "inputs": [
        {
          "indexed": false,
          "internalType": "uint256",
          "name": "id",
          "type": "uint256"
        },
        {
          "indexed": false,
          "internalType": "string",
          "name": "name",
          "type": "string"
        },
        {
          "indexed": false,
          "internalType": "string",
          "name": "category",
          "type": "string"
        },
        {
          "indexed": false,
          "internalType": "uint256",
          "name": "price",
          "type": "uint256"
        },
        {
          "indexed": false,
          "internalType": "uint256",
          "name": "quantityAvailable",
          "type": "uint256"
        },
        {
          "indexed": false,
          "internalType": "string",
          "name": "status",
          "type": "string"
        }
      ],
      "name": "ProductAdded",
      "type": "event"
    },
    {
      "inputs": [
        {
          "internalType": "uint256",
          "name": "",
          "type": "uint256"
        }
      ],
      "name": "products",
      "outputs": [
        {
          "internalType": "uint256",
          "name": "id",
          "type": "uint256"
        },
        {
          "internalType": "string",
          "name": "name",
          "type": "string"
        },
        {
          "internalType": "string",
          "name": "category",
          "type": "string"
        },
        {
          "internalType": "uint256",
          "name": "price",
          "type": "uint256"
        },
        {
          "internalType": "uint256",
          "name": "quantityAvailable",
          "type": "uint256"
        },
        {
          "internalType": "string",
          "name": "status",
          "type": "string"
        }
      ],
      "stateMutability": "view",
      "type": "function",
      "constant": true
    },
    {
      "inputs": [
        {
          "internalType": "uint256",
          "name": "",
          "type": "uint256"
        }
      ],
      "name": "users",
      "outputs": [
        {
          "internalType": "uint256",
          "name": "id",
          "type": "uint256"
        },
        {
          "internalType": "string",
          "name": "name",
          "type": "string"
        },
        {
          "internalType": "string",
          "name": "email",
          "type": "string"
        },
        {
          "internalType": "string",
          "name": "username",
          "type": "string"
        },
        {
          "internalType": "string",
          "name": "password",
          "type": "string"
        },
        {
          "internalType": "uint256",
          "name": "age",
          "type": "uint256"
        },
        {
          "internalType": "address",
          "name": "ethereumAddress",
          "type": "address"
        }
      ],
      "stateMutability": "view",
      "type": "function",
      "constant": true
    },
    {
      "inputs": [
        {
          "internalType": "string",
          "name": "_name",
          "type": "string"
        },
        {
          "internalType": "string",
          "name": "_category",
          "type": "string"
        },
        {
          "internalType": "uint256",
          "name": "_price",
          "type": "uint256"
        },
        {
          "internalType": "uint256",
          "name": "_quantityAvailable",
          "type": "uint256"
        },
        {
          "internalType": "string",
          "name": "_status",
          "type": "string"
        }
      ],
      "name": "addProduct",
      "outputs": [],
      "stateMutability": "nonpayable",
      "type": "function"
    },
    {
      "inputs": [
        {
          "internalType": "uint256",
          "name": "_index",
          "type": "uint256"
        }
      ],
      "name": "getProduct",
      "outputs": [
        {
          "internalType": "uint256",
          "name": "",
          "type": "uint256"
        },
        {
          "internalType": "string",
          "name": "",
          "type": "string"
        },
        {
          "internalType": "string",
          "name": "",
          "type": "string"
        },
        {
          "internalType": "uint256",
          "name": "",
          "type": "uint256"
        },
        {
          "internalType": "uint256",
          "name": "",
          "type": "uint256"
        },
        {
          "internalType": "string",
          "name": "",
          "type": "string"
        }
      ],
      "stateMutability": "view",
      "type": "function",
      "constant": true
    },
    {
      "inputs": [],
      "name": "getAllProducts",
      "outputs": [
        {
          "components": [
            {
              "internalType": "uint256",
              "name": "id",
              "type": "uint256"
            },
            {
              "internalType": "string",
              "name": "name",
              "type": "string"
            },
            {
              "internalType": "string",
              "name": "category",
              "type": "string"
            },
            {
              "internalType": "uint256",
              "name": "price",
              "type": "uint256"
            },
            {
              "internalType": "uint256",
              "name": "quantityAvailable",
              "type": "uint256"
            },
            {
              "internalType": "string",
              "name": "status",
              "type": "string"
            }
          ],
          "internalType": "struct VirtualStore.Product[]",
          "name": "",
          "type": "tuple[]"
        }
      ],
      "stateMutability": "view",
      "type": "function",
      "constant": true
    },
    {
      "inputs": [
        {
          "internalType": "uint256",
          "name": "_index",
          "type": "uint256"
        },
        {
          "internalType": "string",
          "name": "_name",
          "type": "string"
        },
        {
          "internalType": "string",
          "name": "_category",
          "type": "string"
        },
        {
          "internalType": "uint256",
          "name": "_price",
          "type": "uint256"
        },
        {
          "internalType": "uint256",
          "name": "_quantityAvailable",
          "type": "uint256"
        },
        {
          "internalType": "string",
          "name": "_status",
          "type": "string"
        }
      ],
      "name": "updateProduct",
      "outputs": [],
      "stateMutability": "nonpayable",
      "type": "function"
    },
    {
      "inputs": [
        {
          "internalType": "uint256",
          "name": "_index",
          "type": "uint256"
        }
      ],
      "name": "deleteProduct",
      "outputs": [],
      "stateMutability": "nonpayable",
      "type": "function"
    },
    {
      "inputs": [
        {
          "internalType": "uint256",
          "name": "_productId",
          "type": "uint256"
        },
        {
          "internalType": "uint256",
          "name": "_quantity",
          "type": "uint256"
        },
        {
          "internalType": "uint256",
          "name": "_price",
          "type": "uint256"
        },
        {
          "internalType": "address",
          "name": "_buyerAddress",
          "type": "address"
        },
        {
          "internalType": "uint256",
          "name": "_startDate",
          "type": "uint256"
        },
        {
          "internalType": "uint256",
          "name": "_endDate",
          "type": "uint256"
        }
      ],
      "name": "recordSale",
      "outputs": [],
      "stateMutability": "nonpayable",
      "type": "function"
    },
    {
      "inputs": [
        {
          "internalType": "uint256",
          "name": "_index",
          "type": "uint256"
        }
      ],
      "name": "getSale",
      "outputs": [
        {
          "internalType": "uint256",
          "name": "",
          "type": "uint256"
        },
        {
          "internalType": "uint256",
          "name": "",
          "type": "uint256"
        },
        {
          "internalType": "uint256",
          "name": "",
          "type": "uint256"
        },
        {
          "internalType": "uint256",
          "name": "",
          "type": "uint256"
        },
        {
          "internalType": "address",
          "name": "",
          "type": "address"
        },
        {
          "internalType": "uint256",
          "name": "",
          "type": "uint256"
        },
        {
          "internalType": "uint256",
          "name": "",
          "type": "uint256"
        }
      ],
      "stateMutability": "view",
      "type": "function",
      "constant": true
    },
    {
      "inputs": [],
      "name": "getAllSales",
      "outputs": [
        {
          "components": [
            {
              "internalType": "uint256",
              "name": "id",
              "type": "uint256"
            },
            {
              "internalType": "uint256",
              "name": "productId",
              "type": "uint256"
            },
            {
              "internalType": "uint256",
              "name": "quantity",
              "type": "uint256"
            },
            {
              "internalType": "uint256",
              "name": "price",
              "type": "uint256"
            },
            {
              "internalType": "address",
              "name": "buyerAddress",
              "type": "address"
            },
            {
              "internalType": "uint256",
              "name": "startDate",
              "type": "uint256"
            },
            {
              "internalType": "uint256",
              "name": "endDate",
              "type": "uint256"
            }
          ],
          "internalType": "struct VirtualStore.Sale[]",
          "name": "",
          "type": "tuple[]"
        }
      ],
      "stateMutability": "view",
      "type": "function",
      "constant": true
    },
    {
      "inputs": [
        {
          "internalType": "string",
          "name": "_name",
          "type": "string"
        },
        {
          "internalType": "string",
          "name": "_email",
          "type": "string"
        },
        {
          "internalType": "string",
          "name": "_username",
          "type": "string"
        },
        {
          "internalType": "string",
          "name": "_password",
          "type": "string"
        },
        {
          "internalType": "uint256",
          "name": "_age",
          "type": "uint256"
        },
        {
          "internalType": "address",
          "name": "_ethereumAddress",
          "type": "address"
        }
      ],
      "name": "registerUser",
      "outputs": [],
      "stateMutability": "nonpayable",
      "type": "function"
    },
    {
      "inputs": [
        {
          "internalType": "uint256",
          "name": "_id",
          "type": "uint256"
        }
      ],
      "name": "getUser",
      "outputs": [
        {
          "internalType": "string",
          "name": "",
          "type": "string"
        },
        {
          "internalType": "string",
          "name": "",
          "type": "string"
        },
        {
          "internalType": "string",
          "name": "",
          "type": "string"
        },
        {
          "internalType": "string",
          "name": "",
          "type": "string"
        },
        {
          "internalType": "uint256",
          "name": "",
          "type": "uint256"
        },
        {
          "internalType": "address",
          "name": "",
          "type": "address"
        }
      ],
      "stateMutability": "view",
      "type": "function",
      "constant": true
    },
    {
      "inputs": [
        {
          "internalType": "string",
          "name": "_name",
          "type": "string"
        },
        {
          "internalType": "string",
          "name": "_password",
          "type": "string"
        }
      ],
      "name": "findUser",
      "outputs": [
        {
          "internalType": "uint256",
          "name": "",
          "type": "uint256"
        },
        {
          "internalType": "string",
          "name": "",
          "type": "string"
        },
        {
          "internalType": "string",
          "name": "",
          "type": "string"
        },
        {
          "internalType": "string",
          "name": "",
          "type": "string"
        },
        {
          "internalType": "string",
          "name": "",
          "type": "string"
        },
        {
          "internalType": "uint256",
          "name": "",
          "type": "uint256"
        },
        {
          "internalType": "address",
          "name": "",
          "type": "address"
        }
      ],
      "stateMutability": "view",
      "type": "function",
      "constant": true
    },
    {
      "inputs": [
        {
          "internalType": "string",
          "name": "_email",
          "type": "string"
        },
        {
          "internalType": "string",
          "name": "_password",
          "type": "string"
        }
      ],
      "name": "findUserByEmail",
      "outputs": [
        {
          "internalType": "uint256",
          "name": "",
          "type": "uint256"
        },
        {
          "internalType": "string",
          "name": "",
          "type": "string"
        },
        {
          "internalType": "string",
          "name": "",
          "type": "string"
        },
        {
          "internalType": "string",
          "name": "",
          "type": "string"
        },
        {
          "internalType": "string",
          "name": "",
          "type": "string"
        },
        {
          "internalType": "uint256",
          "name": "",
          "type": "uint256"
        },
        {
          "internalType": "address",
          "name": "",
          "type": "address"
        }
      ],
      "stateMutability": "view",
      "type": "function",
      "constant": true
    },
    {
      "inputs": [
        {
          "internalType": "uint256",
          "name": "_id",
          "type": "uint256"
        },
        {
          "internalType": "string",
          "name": "_name",
          "type": "string"
        },
        {
          "internalType": "string",
          "name": "_email",
          "type": "string"
        },
        {
          "internalType": "string",
          "name": "_username",
          "type": "string"
        },
        {
          "internalType": "string",
          "name": "_password",
          "type": "string"
        },
        {
          "internalType": "uint256",
          "name": "_age",
          "type": "uint256"
        },
        {
          "internalType": "address",
          "name": "_ethereumAddress",
          "type": "address"
        }
      ],
      "name": "updateUser",
      "outputs": [],
      "stateMutability": "nonpayable",
      "type": "function"
    },
    {
      "inputs": [
        {
          "internalType": "uint256",
          "name": "_id",
          "type": "uint256"
        }
      ],
      "name": "deleteUser",
      "outputs": [],
      "stateMutability": "nonpayable",
      "type": "function"
    }
  ],
  "bytecode": "0x608060405234801561001057600080fd5b5060016000819055506001808190555060016002819055506130f8806100376000396000f3fe608060405234801561001057600080fd5b50600436106101005760003560e01c806376fd0c1511610097578063b0467deb11610066578063b0467deb146102c0578063b9db15b4146102f5578063d8f6d5961461032a578063ed90c7b71461036057610100565b806376fd0c151461021d5780637acc0b2014610239578063911c29a61461026e578063938b6d681461028a57610100565b80633aabe250116100d35780633aabe250146101935780634da47d37146101c9578063665a7dfe146101e55780636daf0fbb1461020157610100565b806302ee3a52146101055780633339691714610123578063365b98b21461014157806338f1484514610177575b600080fd5b61010d61037c565b60405161011a9190612b61565b60405180910390f35b61012b6105af565b6040516101389190612b83565b60405180910390f35b61015b60048036038101906101569190612506565b6106a0565b60405161016e9796959493929190612c82565b60405180910390f35b610191600480360381019061018c9190612506565b610922565b005b6101ad60048036038101906101a891906122f2565b6109b2565b6040516101c09796959493929190612c82565b60405180910390f35b6101e360048036038101906101de919061262d565b610de5565b005b6101ff60048036038101906101fa919061252f565b610ede565b005b61021b60048036038101906102169190612447565b610faf565b005b610237600480360381019061023291906126fe565b6110e1565b005b610253600480360381019061024e9190612506565b6111fe565b60405161026596959493929190612d0d565b60405180910390f35b6102886004803603810190610283919061235e565b6113e2565b005b6102a4600480360381019061029f91906122f2565b611534565b6040516102b79796959493929190612c82565b60405180910390f35b6102da60048036038101906102d59190612506565b611967565b6040516102ec96959493929190612ba5565b60405180910390f35b61030f600480360381019061030a9190612506565b611c78565b60405161032196959493929190612d0d565b60405180910390f35b610344600480360381019061033f9190612506565b611f28565b6040516103579796959493929190612d83565b60405180910390f35b61037a60048036038101906103759190612506565b6120a0565b005b60606003805480602002602001604051908101604052809291908181526020016000905b828210156105a657838290600052602060002090600602016040518060c0016040529081600082015481526020016001820180546103dd90612f7b565b80601f016020809104026020016040519081016040528092919081815260200182805461040990612f7b565b80156104565780601f1061042b57610100808354040283529160200191610456565b820191906000526020600020905b81548152906001019060200180831161043957829003601f168201915b5050505050815260200160028201805461046f90612f7b565b80601f016020809104026020016040519081016040528092919081815260200182805461049b90612f7b565b80156104e85780601f106104bd576101008083540402835291602001916104e8565b820191906000526020600020905b8154815290600101906020018083116104cb57829003601f168201915b50505050508152602001600382015481526020016004820154815260200160058201805461051590612f7b565b80601f016020809104026020016040519081016040528092919081815260200182805461054190612f7b565b801561058e5780601f106105635761010080835404028352916020019161058e565b820191906000526020600020905b81548152906001019060200180831161057157829003601f168201915b505050505081525050815260200190600101906103a0565b50505050905090565b60606004805480602002602001604051908101604052809291908181526020016000905b8282101561069757838290600052602060002090600702016040518060e0016040529081600082015481526020016001820154815260200160028201548152602001600382015481526020016004820160009054906101000a900473ffffffffffffffffffffffffffffffffffffffff1673ffffffffffffffffffffffffffffffffffffffff1673ffffffffffffffffffffffffffffffffffffffff16815260200160058201548152602001600682015481525050815260200190600101906105d3565b50505050905090565b60056020528060005260406000206000915090508060000154908060010180546106c990612f7b565b80601f01602080910402602001604051908101604052809291908181526020018280546106f590612f7b565b80156107425780601f1061071757610100808354040283529160200191610742565b820191906000526020600020905b81548152906001019060200180831161072557829003601f168201915b50505050509080600201805461075790612f7b565b80601f016020809104026020016040519081016040528092919081815260200182805461078390612f7b565b80156107d05780601f106107a5576101008083540402835291602001916107d0565b820191906000526020600020905b8154815290600101906020018083116107b357829003601f168201915b5050505050908060030180546107e590612f7b565b80601f016020809104026020016040519081016040528092919081815260200182805461081190612f7b565b801561085e5780601f106108335761010080835404028352916020019161085e565b820191906000526020600020905b81548152906001019060200180831161084157829003601f168201915b50505050509080600401805461087390612f7b565b80601f016020809104026020016040519081016040528092919081815260200182805461089f90612f7b565b80156108ec5780601f106108c1576101008083540402835291602001916108ec565b820191906000526020600020905b8154815290600101906020018083116108cf57829003601f168201915b5050505050908060050154908060060160009054906101000a900473ffffffffffffffffffffffffffffffffffffffff16905087565b6005600082815260200190815260200160002060008082016000905560018201600061094e919061217d565b60028201600061095e919061217d565b60038201600061096e919061217d565b60048201600061097e919061217d565b60058201600090556006820160006101000a81549073ffffffffffffffffffffffffffffffffffffffff0219169055505050565b60006060806060806000806000600190505b600254811015610d9d576000600560008381526020019081526020016000206040518060e001604052908160008201548152602001600182018054610a0890612f7b565b80601f0160208091040260200160405190810160405280929190818152602001828054610a3490612f7b565b8015610a815780601f10610a5657610100808354040283529160200191610a81565b820191906000526020600020905b815481529060010190602001808311610a6457829003601f168201915b50505050508152602001600282018054610a9a90612f7b565b80601f0160208091040260200160405190810160405280929190818152602001828054610ac690612f7b565b8015610b135780601f10610ae857610100808354040283529160200191610b13565b820191906000526020600020905b815481529060010190602001808311610af657829003601f168201915b50505050508152602001600382018054610b2c90612f7b565b80601f0160208091040260200160405190810160405280929190818152602001828054610b5890612f7b565b8015610ba55780601f10610b7a57610100808354040283529160200191610ba5565b820191906000526020600020905b815481529060010190602001808311610b8857829003601f168201915b50505050508152602001600482018054610bbe90612f7b565b80601f0160208091040260200160405190810160405280929190818152602001828054610bea90612f7b565b8015610c375780601f10610c0c57610100808354040283529160200191610c37565b820191906000526020600020905b815481529060010190602001808311610c1a57829003601f168201915b50505050508152602001600582015481526020016006820160009054906101000a900473ffffffffffffffffffffffffffffffffffffffff1673ffffffffffffffffffffffffffffffffffffffff1673ffffffffffffffffffffffffffffffffffffffff168152505090508a604051602001610cb39190612b4a565b604051602081830303815290604052805190602001208160200151604051602001610cde9190612b4a565b60405160208183030381529060405280519060200120148015610d50575089604051602001610d0d9190612b4a565b604051602081830303815290604052805190602001208160800151604051602001610d389190612b4a565b60405160208183030381529060405280519060200120145b15610d89578181602001518260400151836060015184608001518560a001518660c0015198509850985098509850985098505050610dd9565b508080610d9590612fad565b9150506109c4565b506040517f08c379a0000000000000000000000000000000000000000000000000000000008152600401610dd090612c22565b60405180910390fd5b92959891949750929550565b6003805490508610610e2c576040517f08c379a0000000000000000000000000000000000000000000000000000000008152600401610e2390612c62565b60405180910390fd5b600060038781548110610e68577f4e487b7100000000000000000000000000000000000000000000000000000000600052603260045260246000fd5b9060005260206000209060060201905085816001019080519060200190610e909291906121bd565b5084816002019080519060200190610ea99291906121bd565b5083816003018190555082816004018190555081816005019080519060200190610ed49291906121bd565b5050505050505050565b600060056000898152602001908152602001600020905086816001019080519060200190610f0d9291906121bd565b5085816002019080519060200190610f269291906121bd565b5084816003019080519060200190610f3f9291906121bd565b5083816004019080519060200190610f589291906121bd565b50828160050181905550818160060160006101000a81548173ffffffffffffffffffffffffffffffffffffffff021916908373ffffffffffffffffffffffffffffffffffffffff1602179055505050505050505050565b6000806000815480929190610fc390612fad565b91905055905060036040518060c001604052808381526020018881526020018781526020018681526020018581526020018481525090806001815401808255809150506001900390600052602060002090600602016000909190919091506000820151816000015560208201518160010190805190602001906110479291906121bd565b5060408201518160020190805190602001906110649291906121bd565b50606082015181600301556080820151816004015560a08201518160050190805190602001906110959291906121bd565b5050507f46fd1f2996faabab5e7edb8d22192b46f8d1595910ae63159489f3ce564339a78187878787876040516110d196959493929190612d0d565b60405180910390a1505050505050565b6000600160008154809291906110f690612fad565b91905055905060046040518060e001604052808381526020018981526020018881526020018781526020018673ffffffffffffffffffffffffffffffffffffffff1681526020018581526020018481525090806001815401808255809150506001900390600052602060002090600702016000909190919091506000820151816000015560208201518160010155604082015181600201556060820151816003015560808201518160040160006101000a81548173ffffffffffffffffffffffffffffffffffffffff021916908373ffffffffffffffffffffffffffffffffffffffff16021790555060a0820151816005015560c08201518160060155505050505050505050565b6003818154811061120e57600080fd5b906000526020600020906006020160009150905080600001549080600101805461123790612f7b565b80601f016020809104026020016040519081016040528092919081815260200182805461126390612f7b565b80156112b05780601f10611285576101008083540402835291602001916112b0565b820191906000526020600020905b81548152906001019060200180831161129357829003601f168201915b5050505050908060020180546112c590612f7b565b80601f01602080910402602001604051908101604052809291908181526020018280546112f190612f7b565b801561133e5780601f106113135761010080835404028352916020019161133e565b820191906000526020600020905b81548152906001019060200180831161132157829003601f168201915b50505050509080600301549080600401549080600501805461135f90612f7b565b80601f016020809104026020016040519081016040528092919081815260200182805461138b90612f7b565b80156113d85780601f106113ad576101008083540402835291602001916113d8565b820191906000526020600020905b8154815290600101906020018083116113bb57829003601f168201915b5050505050905086565b6000600260008154809291906113f790612fad565b9190505590506040518060e001604052808281526020018881526020018781526020018681526020018581526020018481526020018373ffffffffffffffffffffffffffffffffffffffff168152506005600083815260200190815260200160002060008201518160000155602082015181600101908051906020019061147f9291906121bd565b50604082015181600201908051906020019061149c9291906121bd565b5060608201518160030190805190602001906114b99291906121bd565b5060808201518160040190805190602001906114d69291906121bd565b5060a0820151816005015560c08201518160060160006101000a81548173ffffffffffffffffffffffffffffffffffffffff021916908373ffffffffffffffffffffffffffffffffffffffff16021790555090505050505050505050565b60006060806060806000806000600190505b60025481101561191f576000600560008381526020019081526020016000206040518060e00160405290816000820154815260200160018201805461158a90612f7b565b80601f01602080910402602001604051908101604052809291908181526020018280546115b690612f7b565b80156116035780601f106115d857610100808354040283529160200191611603565b820191906000526020600020905b8154815290600101906020018083116115e657829003601f168201915b5050505050815260200160028201805461161c90612f7b565b80601f016020809104026020016040519081016040528092919081815260200182805461164890612f7b565b80156116955780601f1061166a57610100808354040283529160200191611695565b820191906000526020600020905b81548152906001019060200180831161167857829003601f168201915b505050505081526020016003820180546116ae90612f7b565b80601f01602080910402602001604051908101604052809291908181526020018280546116da90612f7b565b80156117275780601f106116fc57610100808354040283529160200191611727565b820191906000526020600020905b81548152906001019060200180831161170a57829003601f168201915b5050505050815260200160048201805461174090612f7b565b80601f016020809104026020016040519081016040528092919081815260200182805461176c90612f7b565b80156117b95780601f1061178e576101008083540402835291602001916117b9565b820191906000526020600020905b81548152906001019060200180831161179c57829003601f168201915b50505050508152602001600582015481526020016006820160009054906101000a900473ffffffffffffffffffffffffffffffffffffffff1673ffffffffffffffffffffffffffffffffffffffff1673ffffffffffffffffffffffffffffffffffffffff168152505090508a6040516020016118359190612b4a565b6040516020818303038152906040528051906020012081604001516040516020016118609190612b4a565b604051602081830303815290604052805190602001201480156118d257508960405160200161188f9190612b4a565b6040516020818303038152906040528051906020012081608001516040516020016118ba9190612b4a565b60405160208183030381529060405280519060200120145b1561190b578181602001518260400151836060015184608001518560a001518660c001519850985098509850985098509850505061195b565b50808061191790612fad565b915050611546565b506040517f08c379a000000000000000000000000000000000000000000000000000000000815260040161195290612c22565b60405180910390fd5b92959891949750929550565b6060806060806000806000600560008981526020019081526020016000206040518060e0016040529081600082015481526020016001820180546119aa90612f7b565b80601f01602080910402602001604051908101604052809291908181526020018280546119d690612f7b565b8015611a235780601f106119f857610100808354040283529160200191611a23565b820191906000526020600020905b815481529060010190602001808311611a0657829003601f168201915b50505050508152602001600282018054611a3c90612f7b565b80601f0160208091040260200160405190810160405280929190818152602001828054611a6890612f7b565b8015611ab55780601f10611a8a57610100808354040283529160200191611ab5565b820191906000526020600020905b815481529060010190602001808311611a9857829003601f168201915b50505050508152602001600382018054611ace90612f7b565b80601f0160208091040260200160405190810160405280929190818152602001828054611afa90612f7b565b8015611b475780601f10611b1c57610100808354040283529160200191611b47565b820191906000526020600020905b815481529060010190602001808311611b2a57829003601f168201915b50505050508152602001600482018054611b6090612f7b565b80601f0160208091040260200160405190810160405280929190818152602001828054611b8c90612f7b565b8015611bd95780601f10611bae57610100808354040283529160200191611bd9565b820191906000526020600020905b815481529060010190602001808311611bbc57829003601f168201915b50505050508152602001600582015481526020016006820160009054906101000a900473ffffffffffffffffffffffffffffffffffffffff1673ffffffffffffffffffffffffffffffffffffffff1673ffffffffffffffffffffffffffffffffffffffff1681525050905080602001518160400151826060015183608001518460a001518560c001519650965096509650965096505091939550919395565b600060608060008060606003805490508710611cc9576040517f08c379a0000000000000000000000000000000000000000000000000000000008152600401611cc090612c62565b60405180910390fd5b600060038881548110611d05577f4e487b7100000000000000000000000000000000000000000000000000000000600052603260045260246000fd5b90600052602060002090600602016040518060c001604052908160008201548152602001600182018054611d3890612f7b565b80601f0160208091040260200160405190810160405280929190818152602001828054611d6490612f7b565b8015611db15780601f10611d8657610100808354040283529160200191611db1565b820191906000526020600020905b815481529060010190602001808311611d9457829003601f168201915b50505050508152602001600282018054611dca90612f7b565b80601f0160208091040260200160405190810160405280929190818152602001828054611df690612f7b565b8015611e435780601f10611e1857610100808354040283529160200191611e43565b820191906000526020600020905b815481529060010190602001808311611e2657829003601f168201915b505050505081526020016003820154815260200160048201548152602001600582018054611e7090612f7b565b80601f0160208091040260200160405190810160405280929190818152602001828054611e9c90612f7b565b8015611ee95780601f10611ebe57610100808354040283529160200191611ee9565b820191906000526020600020905b815481529060010190602001808311611ecc57829003601f168201915b5050505050815250509050806000015181602001518260400151836060015184608001518560a001519650965096509650965096505091939550919395565b60008060008060008060006004805490508810611f7a576040517f08c379a0000000000000000000000000000000000000000000000000000000008152600401611f7190612c42565b60405180910390fd5b600060048981548110611fb6577f4e487b7100000000000000000000000000000000000000000000000000000000600052603260045260246000fd5b90600052602060002090600702016040518060e0016040529081600082015481526020016001820154815260200160028201548152602001600382015481526020016004820160009054906101000a900473ffffffffffffffffffffffffffffffffffffffff1673ffffffffffffffffffffffffffffffffffffffff1673ffffffffffffffffffffffffffffffffffffffff168152602001600582015481526020016006820154815250509050806000015181602001518260400151836060015184608001518560a001518660c00151975097509750975097509750975050919395979092949650565b60038054905081106120e7576040517f08c379a00000000000000000000000000000000000000000000000000000000081526004016120de90612c62565b60405180910390fd5b60038181548110612121577f4e487b7100000000000000000000000000000000000000000000000000000000600052603260045260246000fd5b9060005260206000209060060201600080820160009055600182016000612148919061217d565b600282016000612158919061217d565b60038201600090556004820160009055600582016000612178919061217d565b505050565b50805461218990612f7b565b6000825580601f1061219b57506121ba565b601f0160209004906000526020600020908101906121b99190612243565b5b50565b8280546121c990612f7b565b90600052602060002090601f0160209004810192826121eb5760008555612232565b82601f1061220457805160ff1916838001178555612232565b82800160010185558215612232579182015b82811115612231578251825591602001919060010190612216565b5b50905061223f9190612243565b5090565b5b8082111561225c576000816000905550600101612244565b5090565b600061227361226e84612e23565b612df2565b90508281526020810184848401111561228b57600080fd5b612296848285612f39565b509392505050565b6000813590506122ad81613094565b92915050565b600082601f8301126122c457600080fd5b81356122d4848260208601612260565b91505092915050565b6000813590506122ec816130ab565b92915050565b6000806040838503121561230557600080fd5b600083013567ffffffffffffffff81111561231f57600080fd5b61232b858286016122b3565b925050602083013567ffffffffffffffff81111561234857600080fd5b612354858286016122b3565b9150509250929050565b60008060008060008060c0878903121561237757600080fd5b600087013567ffffffffffffffff81111561239157600080fd5b61239d89828a016122b3565b965050602087013567ffffffffffffffff8111156123ba57600080fd5b6123c689828a016122b3565b955050604087013567ffffffffffffffff8111156123e357600080fd5b6123ef89828a016122b3565b945050606087013567ffffffffffffffff81111561240c57600080fd5b61241889828a016122b3565b935050608061242989828a016122dd565b92505060a061243a89828a0161229e565b9150509295509295509295565b600080600080600060a0868803121561245f57600080fd5b600086013567ffffffffffffffff81111561247957600080fd5b612485888289016122b3565b955050602086013567ffffffffffffffff8111156124a257600080fd5b6124ae888289016122b3565b94505060406124bf888289016122dd565b93505060606124d0888289016122dd565b925050608086013567ffffffffffffffff8111156124ed57600080fd5b6124f9888289016122b3565b9150509295509295909350565b60006020828403121561251857600080fd5b6000612526848285016122dd565b91505092915050565b600080600080600080600060e0888a03121561254a57600080fd5b60006125588a828b016122dd565b975050602088013567ffffffffffffffff81111561257557600080fd5b6125818a828b016122b3565b965050604088013567ffffffffffffffff81111561259e57600080fd5b6125aa8a828b016122b3565b955050606088013567ffffffffffffffff8111156125c757600080fd5b6125d38a828b016122b3565b945050608088013567ffffffffffffffff8111156125f057600080fd5b6125fc8a828b016122b3565b93505060a061260d8a828b016122dd565b92505060c061261e8a828b0161229e565b91505092959891949750929550565b60008060008060008060c0878903121561264657600080fd5b600061265489828a016122dd565b965050602087013567ffffffffffffffff81111561267157600080fd5b61267d89828a016122b3565b955050604087013567ffffffffffffffff81111561269a57600080fd5b6126a689828a016122b3565b94505060606126b789828a016122dd565b93505060806126c889828a016122dd565b92505060a087013567ffffffffffffffff8111156126e557600080fd5b6126f189828a016122b3565b9150509295509295509295565b60008060008060008060c0878903121561271757600080fd5b600061272589828a016122dd565b965050602061273689828a016122dd565b955050604061274789828a016122dd565b945050606061275889828a0161229e565b935050608061276989828a016122dd565b92505060a061277a89828a016122dd565b9150509295509295509295565b60006127938383612a07565b905092915050565b60006127a78383612a9e565b60e08301905092915050565b6127bc81612efd565b82525050565b6127cb81612efd565b82525050565b60006127dc82612e73565b6127e68185612eae565b9350836020820285016127f885612e53565b8060005b8581101561283457848403895281516128158582612787565b945061282083612e94565b925060208a019950506001810190506127fc565b50829750879550505050505092915050565b600061285182612e7e565b61285b8185612ebf565b935061286683612e63565b8060005b8381101561289757815161287e888261279b565b975061288983612ea1565b92505060018101905061286a565b5085935050505092915050565b60006128af82612e89565b6128b98185612ed0565b93506128c9818560208601612f48565b6128d281613083565b840191505092915050565b60006128e882612e89565b6128f28185612ee1565b9350612902818560208601612f48565b61290b81613083565b840191505092915050565b600061292182612e89565b61292b8185612ef2565b935061293b818560208601612f48565b80840191505092915050565b6000612954600e83612ee1565b91507f55736572206e6f7420666f756e640000000000000000000000000000000000006000830152602082019050919050565b6000612994601883612ee1565b91507f53616c6520696e646578206f7574206f6620626f756e647300000000000000006000830152602082019050919050565b60006129d4601b83612ee1565b91507f50726f6475637420696e646578206f7574206f6620626f756e647300000000006000830152602082019050919050565b600060c083016000830151612a1f6000860182612b2c565b5060208301518482036020860152612a3782826128a4565b91505060408301518482036040860152612a5182826128a4565b9150506060830151612a666060860182612b2c565b506080830151612a796080860182612b2c565b5060a083015184820360a0860152612a9182826128a4565b9150508091505092915050565b60e082016000820151612ab46000850182612b2c565b506020820151612ac76020850182612b2c565b506040820151612ada6040850182612b2c565b506060820151612aed6060850182612b2c565b506080820151612b0060808501826127b3565b5060a0820151612b1360a0850182612b2c565b5060c0820151612b2660c0850182612b2c565b50505050565b612b3581612f2f565b82525050565b612b4481612f2f565b82525050565b6000612b568284612916565b915081905092915050565b60006020820190508181036000830152612b7b81846127d1565b905092915050565b60006020820190508181036000830152612b9d8184612846565b905092915050565b600060c0820190508181036000830152612bbf81896128dd565b90508181036020830152612bd381886128dd565b90508181036040830152612be781876128dd565b90508181036060830152612bfb81866128dd565b9050612c0a6080830185612b3b565b612c1760a08301846127c2565b979650505050505050565b60006020820190508181036000830152612c3b81612947565b9050919050565b60006020820190508181036000830152612c5b81612987565b9050919050565b60006020820190508181036000830152612c7b816129c7565b9050919050565b600060e082019050612c97600083018a612b3b565b8181036020830152612ca981896128dd565b90508181036040830152612cbd81886128dd565b90508181036060830152612cd181876128dd565b90508181036080830152612ce581866128dd565b9050612cf460a0830185612b3b565b612d0160c08301846127c2565b98975050505050505050565b600060c082019050612d226000830189612b3b565b8181036020830152612d3481886128dd565b90508181036040830152612d4881876128dd565b9050612d576060830186612b3b565b612d646080830185612b3b565b81810360a0830152612d7681846128dd565b9050979650505050505050565b600060e082019050612d98600083018a612b3b565b612da56020830189612b3b565b612db26040830188612b3b565b612dbf6060830187612b3b565b612dcc60808301866127c2565b612dd960a0830185612b3b565b612de660c0830184612b3b565b98975050505050505050565b6000604051905081810181811067ffffffffffffffff82111715612e1957612e18613054565b5b8060405250919050565b600067ffffffffffffffff821115612e3e57612e3d613054565b5b601f19601f8301169050602081019050919050565b6000819050602082019050919050565b6000819050602082019050919050565b600081519050919050565b600081519050919050565b600081519050919050565b6000602082019050919050565b6000602082019050919050565b600082825260208201905092915050565b600082825260208201905092915050565b600082825260208201905092915050565b600082825260208201905092915050565b600081905092915050565b6000612f0882612f0f565b9050919050565b600073ffffffffffffffffffffffffffffffffffffffff82169050919050565b6000819050919050565b82818337600083830152505050565b60005b83811015612f66578082015181840152602081019050612f4b565b83811115612f75576000848401525b50505050565b60006002820490506001821680612f9357607f821691505b60208210811415612fa757612fa6613025565b5b50919050565b6000612fb882612f2f565b91507fffffffffffffffffffffffffffffffffffffffffffffffffffffffffffffffff821415612feb57612fea612ff6565b5b600182019050919050565b7f4e487b7100000000000000000000000000000000000000000000000000000000600052601160045260246000fd5b7f4e487b7100000000000000000000000000000000000000000000000000000000600052602260045260246000fd5b7f4e487b7100000000000000000000000000000000000000000000000000000000600052604160045260246000fd5b6000601f19601f8301169050919050565b61309d81612efd565b81146130a857600080fd5b50565b6130b481612f2f565b81146130bf57600080fd5b5056fea2646970667358221220435eb0474c9453bf9674408c42ef88cccdc09ce4ad3ce84436f467577f99c6ae64736f6c63430008000033",
  "immutableReferences": {},
  "source": "// SPDX-License-Identifier: MIT\r\npragma solidity ^0.8.0;\r\n\r\ncontract VirtualStore {\r\n    // Structure for Product\r\n    struct Product {\r\n        uint id;\r\n        string name;\r\n        string category;\r\n        uint price;\r\n        uint quantityAvailable;\r\n        string status; // New\r\n    }\r\n\r\n    // Structure for Sale\r\n    struct Sale {\r\n        uint id;\r\n        uint productId;\r\n        uint quantity;\r\n        uint price;\r\n        address buyerAddress;\r\n        uint startDate; // New\r\n        uint endDate;   // New\r\n    }\r\n\r\n    // Structure for User\r\n    struct User {\r\n        uint id;\r\n        string name;\r\n        string email;\r\n        string username;     // New\r\n        string password;     // New\r\n        uint age;            // New\r\n        address ethereumAddress;\r\n    }\r\n\r\n    // State variables for keeping track of IDs\r\n    uint private nextProductId;\r\n    uint private nextSaleId;\r\n    uint private nextUserId;\r\n\r\n    // Array of products\r\n    Product[] public products;\r\n\r\n    // Array of sales (private)\r\n    Sale[] private sales;\r\n\r\n    // Mapping of users by ID\r\n    mapping(uint => User) public users;\r\n\r\n    // Event for adding product\r\n    event ProductAdded(uint id, string name, string category, uint price, uint quantityAvailable, string status);\r\n\r\n    // Constructor\r\n    constructor() {\r\n        nextProductId = 1;\r\n        nextSaleId = 1;\r\n        nextUserId = 1;\r\n    }\r\n\r\n    // Methods for Product\r\n    function addProduct(string memory _name, string memory _category, uint _price, uint _quantityAvailable, string memory _status) public {\r\n        uint productId = nextProductId++;\r\n        products.push(Product(productId, _name, _category, _price, _quantityAvailable, _status));\r\n        emit ProductAdded(productId, _name, _category, _price, _quantityAvailable, _status);\r\n    }\r\n\r\n    function getProduct(uint _index) public view returns (uint, string memory, string memory, uint, uint, string memory) {\r\n        require(_index < products.length, \"Product index out of bounds\");\r\n        Product memory p = products[_index];\r\n        return (p.id, p.name, p.category, p.price, p.quantityAvailable, p.status);\r\n    }\r\n\r\n    function getAllProducts() public view returns (Product[] memory) {\r\n        return products;\r\n    }\r\n\r\n    function updateProduct(uint _index, string memory _name, string memory _category, uint _price, uint _quantityAvailable, string memory _status) public {\r\n        require(_index < products.length, \"Product index out of bounds\");\r\n        Product storage p = products[_index];\r\n        p.name = _name;\r\n        p.category = _category;\r\n        p.price = _price;\r\n        p.quantityAvailable = _quantityAvailable;\r\n        p.status = _status;\r\n    }\r\n\r\n    function deleteProduct(uint _index) public {\r\n        require(_index < products.length, \"Product index out of bounds\");\r\n        delete products[_index];\r\n    }\r\n\r\n    // Methods for Sale\r\n    function recordSale(uint _productId, uint _quantity, uint _price, address _buyerAddress, uint _startDate, uint _endDate) public {\r\n        uint saleId = nextSaleId++;\r\n        sales.push(Sale(saleId, _productId, _quantity, _price, _buyerAddress, _startDate, _endDate));\r\n    }\r\n\r\n    function getSale(uint _index) public view returns (uint, uint, uint, uint, address, uint, uint) {\r\n        require(_index < sales.length, \"Sale index out of bounds\");\r\n        Sale memory v = sales[_index];\r\n        return (v.id, v.productId, v.quantity, v.price, v.buyerAddress, v.startDate, v.endDate);\r\n    }\r\n\r\n    function getAllSales() public view returns (Sale[] memory) {\r\n        return sales;\r\n    }\r\n\r\n    // Methods for User\r\n    function registerUser(string memory _name, string memory _email, string memory _username, string memory _password, uint _age, address _ethereumAddress) public {\r\n        uint userId = nextUserId++;\r\n        users[userId] = User(userId, _name, _email, _username, _password, _age, _ethereumAddress);\r\n    }\r\n\r\n    function getUser(uint _id) public view returns (string memory, string memory, string memory, string memory, uint, address) {\r\n        User memory u = users[_id];\r\n        return (u.name, u.email, u.username, u.password, u.age, u.ethereumAddress);\r\n    }\r\n    \r\n    function findUser(string memory _name, string memory _password) public view returns (uint, string memory, string memory, string memory, string memory, uint, address) {\r\n        for (uint i = 1; i < nextUserId; i++) {\r\n            User memory u = users[i];\r\n            if (keccak256(abi.encodePacked(u.name)) == keccak256(abi.encodePacked(_name)) && keccak256(abi.encodePacked(u.password)) == keccak256(abi.encodePacked(_password))) {\r\n                return (i, u.name, u.email, u.username, u.password, u.age, u.ethereumAddress);\r\n            }\r\n        }\r\n        revert(\"User not found\");\r\n    }\r\n\r\n    function findUserByEmail(string memory _email, string memory _password) public view returns (uint, string memory, string memory, string memory, string memory, uint, address) {\r\n        for (uint i = 1; i < nextUserId; i++) {\r\n            User memory u = users[i];\r\n            if (keccak256(abi.encodePacked(u.email)) == keccak256(abi.encodePacked(_email)) && keccak256(abi.encodePacked(u.password)) == keccak256(abi.encodePacked(_password))) {\r\n                return (i, u.name, u.email, u.username, u.password, u.age, u.ethereumAddress);\r\n            }\r\n        }\r\n        revert(\"User not found\");\r\n    }\r\n    \r\n    function updateUser(uint _id, string memory _name, string memory _email, string memory _username, string memory _password, uint _age, address _ethereumAddress) public {\r\n        User storage u = users[_id];\r\n        u.name = _name;\r\n        u.email = _email;\r\n        u.username = _username;\r\n        u.password = _password;\r\n        u.age = _age;\r\n        u.ethereumAddress = _ethereumAddress;\r\n    }\r\n\r\n    function deleteUser(uint _id) public {\r\n        delete users[_id];\r\n    }\r\n}\r\n",
  "sourcePath": "C:\\Users\\michi\\Desktop\\Universidad-UESC\\Blockchain\\contracts\\VirtualStore.sol",
  "compiler": {
    "name": "solc",
    "version": "0.8.0+commit.c7dfd78e.Emscripten.clang"
  },
  "schemaVersion": "3.4.16",
  "updatedAt": "2024-07-05T03:44:04.553Z",
  "networkType": "ethereum",
  "devdoc": {
    "kind": "dev",
    "methods": {},
    "version": 1
  },
  "userdoc": {
    "kind": "user",
    "methods": {},
    "version": 1
  }
}